:020000040800F2
:100000000020002075040008FF0300080104000818
:1000100003040008050400080704000800000000AD
:1000200000000000000000000000000009040008BB
:100030000B040008000000000D0400080F04000875
:1000400085040008890400088D0400089104000854
:1000500095040008990400089D040008A104000804
:10006000A5040008A9040008AD040008B1040008B4
:10007000B5040008B9040008BD040008C104000864
:10008000C5040008C9040008CD040008D104000814
:10009000D5040008D9040008DD040008E1040008C4
:1000A000E5040008E9040008ED040008F104000874
:1000B000F5040008F9040008FD0400080105000823
:1000C00005050008090500080D05000811050008D0
:1000D00015050008190500081D0500082105000880
:1000E00025050008290500082D0500083105000830
:1000F00035050008390500083D05000841050008E0
:1001000045050008490500084D050008510500088F
:1001100055050008590500085D050008610500083F
:1001200065050008690500086D05000871050008EF
:1001300075050008790500087D050008810500089F
:1001400085050008890500088D050008910500084F
:1001500095050008990500089D050008A1050008FF
:10016000A5050008A9050008AD050008B1050008AF
:10017000B5050008B9050008BD050008C10500085F
:10018000C5050008C905000880B53C48016851F460
:10019000700101603A49086850F0010008600020D1
:1001A000384A10600A68384802400A603748384ABE
:1001B0001060086830F4802008600020354908602D
:1001C00000F005F85FF000603349086001BD82B0BF
:1001D00000200190002000902949086850F48030E8
:1001E0000860086810F4003000900198401C0190ED
:1001F0000098002803D10198B0F5A04FF1D108680C
:10020000800302D50120009001E0002000900098BA
:1002100001282FD12148026852F080520260204804
:10022000026852F4404202601648026802600268A6
:1002300052F400420260026852F4A0520260194A6D
:10024000134B1A600A6852F080720A600A689201C1
:10025000FCD540F20571144A1160016889088900D3
:100260000160016851F002010160016811F00C01A8
:100270000829FAD102B070470000000088ED00E0C4
:100280000038024008380240FFFFF6FE103000241C
:10029000043802400C38024008ED00E040380240CB
:1002A0000070004008544007003C0240F0B40022B7
:1002B0000022002200233DE0012414FA03F20D681D
:1002C0001540954235D1032502685E0015FA06F601
:1002D000B243026006680F795A0097403E430660B9
:1002E0000A79012A02D00A79022A16D182685E00B0
:1002F00015FA06F6B243826086684F795A00974035
:100300003E43866042689C4032EA0404446042688E
:100310008C799C40A4B222434260C4685A00954044
:1003200034EA0505C560C468CD795A0095402C4370
:10033000C4605B1C102BBFD3F0BC704701837047B7
:100340004183704781B00021009144F2A0114843DD
:10035000009002E00098401E009000980028F9D11B
:1003600001B070471CB50121042000F027F80120DE
:100370008DF8040000208DF8060003208DF805009C
:1003800000208DF80700FF2000900B4C69462000EC
:10039000FFF78CFFFF212000FFF7D0FF4FF4FA702A
:1003A000FFF7D0FFFF212000FFF7CAFF4FF4FA70DC
:1003B000FFF7C8FFEEE7000000080240C9B20029BD
:1003C00004D005490A681043086004E002490A683D
:1003D00032EA000008607047303802404EF688511B
:1003E000CEF20001086840F470000860BFF34F8F40
:1003F000BFF36F8F4FF00170E1EE100A7047704746
:10040000FEE7FEE7FEE7FEE770477047704770477C
:1004100000F00DF8002801D0AFF30080AFF30080AA
:100420000020AFF30080FFF79DFF00F002F80120ED
:10043000704700F001B800000746384600F002F8A7
:10044000FBE7000080B5AFF30080024A11001820DE
:10045000ABBEFBE7260002000548014603B4684630
:1004600080F30988AFF30080FFF7B8FFFFF7D0FFF4
:10047000A5EDF5FE014880470148004789010008C5
:1004800059040008FFF7FEBFFFF7FEBFFFF7FEBFEE
:10049000FFF7FEBFFFF7FEBFFFF7FEBFFFF7FEBF90
:1004A000FFF7FEBFFFF7FEBFFFF7FEBFFFF7FEBF80
:1004B000FFF7FEBFFFF7FEBFFFF7FEBFFFF7FEBF70
:1004C000FFF7FEBFFFF7FEBFFFF7FEBFFFF7FEBF60
:1004D000FFF7FEBFFFF7FEBFFFF7FEBFFFF7FEBF50
:1004E000FFF7FEBFFFF7FEBFFFF7FEBFFFF7FEBF40
:1004F000FFF7FEBFFFF7FEBFFFF7FEBFFFF7FEBF30
:10050000FFF7FEBFFFF7FEBFFFF7FEBFFFF7FEBF1F
:10051000FFF7FEBFFFF7FEBFFFF7FEBFFFF7FEBF0F
:10052000FFF7FEBFFFF7FEBFFFF7FEBFFFF7FEBFFF
:10053000FFF7FEBFFFF7FEBFFFF7FEBFFFF7FEBFEF
:10054000FFF7FEBFFFF7FEBFFFF7FEBFFFF7FEBFDF
:10055000FFF7FEBFFFF7FEBFFFF7FEBFFFF7FEBFCF
:10056000FFF7FEBFFFF7FEBFFFF7FEBFFFF7FEBFBF
:10057000FFF7FEBFFFF7FEBFFFF7FEBFFFF7FEBFAF
:10058000FFF7FEBFFFF7FEBFFFF7FEBFFFF7FEBF9F
:10059000FFF7FEBFFFF7FEBFFFF7FEBFFFF7FEBF8F
:1005A000FFF7FEBFFFF7FEBFFFF7FEBFFFF7FEBF7F
:1005B000FFF7FEBFFFF7FEBFFFF7FEBFFFF7FEBF6F
:0C05C000FFF7FEBFFFF7FEBFFFF7FEBF16
:040000050800045992
:00000001FF
