:020000040800F2
:1000000060210020D53B0008E7100008E910000837
:10001000EB100008ED100008EF10000800000000D1
:10002000000000000000000000000000F1100008C7
:10003000F310000800000000F5100008F710000899
:10004000293C00082D3C0008313C0008353C0008E4
:10005000393C00083D3C0008413C0008453C000894
:10006000493C00084D3C0008513C0008553C000844
:10007000593C00085D3C0008613C0008653C0008F4
:10008000693C00086D3C00089F2B0008713C00088B
:10009000753C0008793C00087D3C0008813C000864
:1000A000853C0008893C00088D3C0008913C000814
:1000B000953C0008993C0008FB2800089D3C00087E
:1000C000A13C0008A53C0008A93C0008AD3C000884
:1000D000B13C0008B53C000807260008B93C000800
:1000E00055220008BD3C0008C13C0008C53C000882
:1000F000C93C0008CD3C0008D13C0008D53C0008B4
:10010000D93C0008DD3C0008E13C0008E53C000863
:100110004D270008E93C0008ED3C00087123000869
:10012000F13C0008F53C0008F93C0008FD3C0008E3
:10013000013D0008053D0008093D00080D3D00088F
:10014000113D0008153D0008193D00081D3D00083F
:10015000213D0008253D0008293D00082D3D0008EF
:10016000313D0008353D0008393D00083D3D00089F
:10017000413D0008453D0008493D00084D3D00084F
:10018000513D0008553D000840F0200070472DE922
:10019000F14FB0B0924604910DF142013A9A2B9181
:1001A00099464A7000200AE01AF8011B0498309A18
:1001B00090470028049000F042860D98401C0D9056
:1001C0009AF8000050B12528EED1002100220791B5
:1001D000089209910A920B910C9204E00D9800F09C
:1001E00030BE41F001011AF8010F2028F9D0232870
:1001F0000CD02B2804D02D2805D0302809D00BE0B6
:1002000041F00201EFE741F00401ECE741F00801A1
:10021000E9E741F01001E6E72A280FD1D9F80020DC
:1002200052F8040BC9F8002000280F9003D5404273
:100230000F9041F004010AF1010A14E00F92DFF877
:10024000083C0AE00F98984205DA00EB800402EBC4
:100250004402303A0F920AF1010A9AF80020A2F102
:1002600030000A28EED39AF800002E2803D04FF071
:10027000FF320E9229E01AF8010F2A2809D1D9F885
:10028000000050F8042BC9F800000E920AF1010A90
:100290001BE02D280CBF0AF1010A002000220E925B
:1002A000DFF8A44B0BE040B90E9AA24205DA02EB4C
:1002B000820503EB4503303B0E930AF1010A9AF8DD
:1002C0000030A3F130020A2AEDD3ADF840100FF64A
:1002D0007C309AF8001000F0FBFE08B11AF8010B10
:1002E0008DF842009DF84200682805D19AF8000078
:1002F00068280CD1622106E06C2804BF9AF800003F
:100300006C2804D171218DF842100AF1010A12A85B
:1003100006901AF801BBBBF125012CD01C3900F066
:100320009481091F022940F29081133900F0B984A9
:10033000093900F08A81891E00F04E85491E00F0BF
:10034000FB84491E022940F28081091F00F0F484D9
:10035000491F00F0EF80491E00F0A384491E00F001
:10036000D780C91E0CD0891E00F09B84C91E00F0E6
:10037000988400F03CBD01230793252100F034BD93
:10038000D9F8000050F8044BC9F80000002C05947F
:1003900040F0AB802B994878002800F0A1804FF006
:1003A000FF340FF6B02000F0A7FE201A40F047857A
:1003B00000F029BD01236A4602A9304600F00EFE76
:1003C000002840F03C856D1EF4D13096079D12AF99
:1003D00075B1309E17F8011B0498B04700280490AF
:1003E00000F02D850D98401C6D1E0D90F2D13096B9
:1003F0000A9D3021002D8DF800100CDD309E012368
:100400006A4602A9304600F0E9FD002840F0178551
:100410006D1EF4D13096059F089D75B1309E17F87A
:10042000011B0498B0470028049000F008850D983F
:10043000401C6D1E0D90F2D130960B9D3021002D89
:100440008DF800100CDD309E01236A4602A930466B
:1004500000F0C4FD002840F0F2846D1EF4D1309607
:1004600005980899099D471875B1309E17F8011B2A
:100470000498B0470028049000F0E1840D98401CD7
:100480006D1E0D90F2D130960C9D3021002D8DF80F
:1004900000100CDD309E01236A4602A9304600F0B0
:1004A0009DFD002840F0CB846D1EF4D130969DF860
:1004B000400041077FF584AE2020002C8DF800001D
:1004C0007FF77EAE309D01236A4602A9284600F0E0
:1004D00085FD002840F0B384641EF4D130956FE6AA
:1004E0000FF65830059000F08EBC0E9D002D04D5FF
:1004F000204600F021FE044607E02A46204600F090
:100500003BFE002814BF041B2C46089400F07BBC63
:10051000D9F8001051F8040BC9F8001020F00004BD
:10052000002121F0FF35CDE9024512AB059378217A
:1005300000F04EBC2B99487820B14FF0FF340FF6F5
:10054000CC2030E79DF84200622860D0682817D0A0
:100550006A283FD06C2806D0712847D074282CD048
:100560007A281DD062E0D9F8001051F8040BC9F8C0
:100570000010002866D14FF0FF340FF6A82012E7D4
:10058000D9F8001051F8040BC9F8001020B94FF049
:10059000FF340FF6902006E70D99018000F033BC80
:1005A000D9F8001051F8040BC9F80010002849D1FF
:1005B0004FF0FF340FF66C20F5E6D9F8001051F833
:1005C000040BC9F8001000283CD14FF0FF340FF69F
:1005D0005420E8E6D9F8001051F8040BC9F80010CF
:1005E00080B94FF0FF340FF63C20DCE6D9F800105C
:1005F00051F8040BC9F8001020B94FF0FF340FF682
:100600002420D0E60D9AD317C0E90023FBE3D9F8E4
:10061000001051F8040BC9F8001020B94FF0FF3456
:100620000FF60020BFE60D990170ECE3D9F8001039
:1006300051F8040BC9F8001020B94FF0FF340FF641
:10064000E410B0E60D990160DDE39DF842004C280E
:1006500007BFD9F80010CA1DD9F80000C21D22F04A
:100660000702C9F80020D2E900010832C9F80020C9
:10067000CDE90201C80F02D007982D210AE0BDF88C
:100680004000810702D507982B2103E0C00705D55C
:100690000798202112AA1154401C079012A807990C
:1006A0004BF0200300EB010CDDE90201CDE92C0148
:1006B000612BCDF814C021AC0BD00E98002848BF98
:1006C000062105D404BF4BF02000672801D1012189
:1006D0000E91DDE902014F0047EAD0777E15FF1742
:1006E0004FF0FF32974208BF964210D1090341EA0A
:1006F00010510003002908BF002808D0ABF16105A4
:1007000003211A2D089118D30FF6381110E0DDE9F6
:1007100002014A00521512F1010F11D108030FD145
:10072000ABF1610503211A2D08911FD30FF61C119F
:100730000322604600F04CFD65E30FF60411F7E775
:10074000DDE902016A4600F097FDCDE902014BF0B8
:100750002000612811D1059830210170821C05927A
:10076000BBF1610F0CBF7821582102E00FF6D801D0
:10077000DEE741700798801C0790DDE9020120F058
:10078000000231F0004308BF002A02D100260025F4
:1007900042E14BF02008B8F1610F40F092800E98D2
:1007A000002847BF21210191401C0190019FDDE9F4
:1007B0002C017F1C00220023DDE9024500F094FD9E
:1007C00038BF85F0004500998DF88420091F002F5F
:1007D00000910DF1850632DD2046294600220023D6
:1007E00000F09CFD2BD21C2200F0B2FD04460D4609
:1007F00000F04CFEFF1F002F804609DD00F062FE76
:1008000002460B462046294600F024FF04460D46CA
:10081000F01D0721B8F1000F0CDD491E5EBF08F086
:100820000F0200F8012D4FEA2818F3D502E000224C
:1008300000F8012D491EFAD5C61D002FCCDC0DF1A4
:100840008500361A01980DF185048642D8BF3046DE
:1008500000282FD4B04206DA0DF185010A5C082A7F
:10086000A8BF0F2100DA0021024621AB134400E0AB
:10087000401E13F80159521E8D42F9D00F2904D1A0
:100880000DF185018B5C5B1C8B54002A04D500990B
:10089000091D21AC401C0091411E0BD46218137835
:1008A0003033DDB23A2DA4BF5B443A3B491E02F817
:1008B0000139F4D50E99002940F1AC80421E0E9208
:1008C000A8E00099DFF8042747F29750414391FBD5
:1008D000F2F20092DDE92C45C2F10702002A25F070
:1008E000004504DD2046294600F04CFB0BE0524257
:1008F0000020DFF8DC1600F045FB02460B462046E0
:10090000294600F019FF04460D46B8F1660F06BFF0
:10091000009F0A3706270E983F18142FC8BF1427C8
:1009200030208DF884000DF18506002F34DD20463F
:10093000294601F025F801460A4606F1080304207D
:100940000A26B2FBF6F606EB860EA2EB4E0230321A
:1009500003F8012C0A22B6FBF2F202EB820EA6EBA0
:100960004E063036401E03F8026DE9D1083F002FD5
:1009700003F10806D9DD084601F014F802460B46DB
:100980002046294600F066FE0022DFF8483601F0D6
:1009900017F804460D46CAE70DF18500361A0DF129
:1009A000850404E00098401E761E0090641C2078A8
:1009B0003028F7D0B8F1660F02D10099491C04E045
:1009C000B8F1650F0CBF012100210E98081886426E
:1009D000B8BF701E00281DD4B04204DA215C34294F
:1009E000C8BF392100DC30210246631E9D1800E09B
:1009F000401E15F80169521E8E42F9D0392902D1E4
:100A0000A15C491CA154002A04D50099491C1C462C
:100A1000401C00910646009D01F0C0F8406A07782E
:100A2000DDF8388030B2002802DC01260FF22064A5
:100A30004BF02000662808BF6D1C16D0672846D1F1
:100A400028B210F1040F48DB404546DA9DF840001B
:100A50006D1C010703D430B24045D8BF804628B290
:100A6000B8EB000848BF4FF000080FFA85FBBBF158
:100A7000000F00F3B5800898411C089130220599B9
:100A80000A54B8F1000F03DC9DF84000010704D5BB
:100A90000898411C089105990F5418EB0B0FB8BF2B
:100AA000C8F100052DB26842A84432B20B909045BF
:100AB000B8BF4646059B089836B20996324621468D
:100AC000184400F085FBA8EB06000C90D2E0BBF1C7
:100AD000610F17D14FF0700B19E030B2404504DAC6
:100AE0009DF840100A0758BF8046B8F1010848BF7A
:100AF0004FF00008BBF1670F14BF4FF0450B4FF0EC
:100B0000650B04E0BBF1410F08BF4FF0500B089894
:100B1000411C0891B8F1000F059914F8012B0A54F3
:100B200003DC9DF8400001071AD50898411C089184
:100B3000B8F1000F05990F5412DD761E30B28045D2
:100B4000B8BF46460598089B32B22146184400F0CB
:100B50003FFB089936B271180891A8EB06000B907C
:100B600005980899084429B2002980F800B003D4F8
:100B70002B224270821C04E02D2242700D46821C02
:100B80006D4200212CAB28460AE004460A2094FB63
:100B9000F0F000EB8005A4EB450403F8014B491C81
:100BA00000B20028F1DC012906DC4BF020006528AA
:100BB00004BF302002F8010B00292CAB08D13020F3
:100BC00002F8010B06E0491E585C303002F8010BB8
:100BD0000029F8DC059908980844121A099249E09E
:100BE00030B229B288421CDA0598089B32B22146FD
:100BF000184400F0EDFA089936B271180891ABEB81
:100C00000600B8F1000F0B9003DC9DF840000207CE
:100C100004D5059847540999491C0991CDF83080AD
:100C200028E00598089B2AB22146184400F0D0FA23
:100C30000898761B5844B8F1000F089003DC9DF823
:100C400040100A0703D5411C089105990F5430B292
:100C50008045B8BF46460598089B32B204EB0B01AD
:100C6000184400F0B5FA089836B230180890A8EB8E
:100C700006000B909DF8400000F01400102840F092
:100C8000C280079A08990B988A18099982180C98BB
:100C90008A1882180F98824280F2B580821A0A92CE
:100CA000B1E09DF84200622808D068280ED06A287A
:100CB00014D06C281FD0712810D01CE0D9F8001077
:100CC00051F8040BC9F80010C0B21AE0D9F80010AE
:100CD00051F8040BC9F8001080B212E0D9F80000F6
:100CE000C21D22F00702C9F80020D2E90001083233
:100CF000C9F8002006E0D9F8001051F8040BC9F833
:100D000000100021CDE902019DF8400001075AD5ED
:100D1000DDE90223002B08BF002A54D04BF020004D
:100D2000782850D1079812A930220A54401C431C3D
:100D3000079301F800B046E09DF84200622808D011
:100D400068280ED06A2814D06C281FD0712810D0C3
:100D50001CE0D9F8001051F8040BC9F8001040B29B
:100D60001AE0D9F8001051F8040BC9F8001000B2CD
:100D700012E0D9F80000C21D22F00702C9F80020D5
:100D8000D2E900010832C9F8002006E0D9F80010C5
:100D900051F8040BC9F80010C117CDE90201002970
:100DA00002D507982D210AE0BDF84000810702D541
:100DB00007982B2103E0C00705D50798202112AA28
:100DC0001154401C079012A80799014405915946F7
:100DD00002A800F04DF816E001200790D9F80000B5
:100DE00050F8041BC9F800008DF848100BE00121F1
:100DF0002522BBF1000F07918DF8482003D0022275
:100E000007928DF849B00F9A07980A990C9C121A0C
:100E10000898521A0B99121A0998521A121A9DF828
:100E20004000141B41073FF5D1AA2020002C8DF86B
:100E300000007FF7CBAA309E2546FFF7BBBA4FF0E4
:100E4000FF3031B0BDE8F08FCBCCCC0C686A6C744D
:100E50007A4C00007072696E74665F733A2062614A
:100E60006420257320617267756D656E74000000E3
:100E70002DE9FC4707468A463C6950466F2808BF63
:100E8000082505D0FFF780F9782814BF0A2510251A
:100E9000D7E900013C2680468946BAF1640F18BFA5
:100EA000BAF1690F05D1002903D5D8F1000869EB23
:100EB0004909B9F1000F08BFB8F1000F0CD1386B28
:100EC00050B9082D3AD197F83800010736D53022AD
:100ED0003B2684F83B2031E08DF800A0404649468F
:100EE0002A46EB1700F060FE3032D0B2761E3A2868
:100EF00001960EDAA255404649462A46EB1700F005
:100F000053FE80465FEA010908BFB8F1000F05D122
:100F100008E09DF800001218513AEBE7F868A119B3
:100F20008842DBD3082D09D197F83800010705D591
:100F3000A05D302802D0761E3020A055C6F13C02BC
:100F4000BA61A119F960386B824208DA821A3A62F2
:100F50004FF6EF70398F01403987BDE8F3870028DD
:100F60000ED597F8380000F01400102808D17B6BDC
:100F70007969386A5B1A1B1A9A1A002AC8BF3A6242
:100F8000BDE8F3872DE9D04306460F4614464FF0DF
:100F90000008DFF8449012E0E00707D542464B46D0
:100FA0003046394600F00CFD06460F46404649469D
:100FB00042464B4600F004FD641080468946002CF2
:100FC000EAD130463946BDE8D0830000A086010052
:100FD0000000F03F84D7974100002440F8B5054653
:100FE0000E4617461C4600205CB117F8011BB0687E
:100FF000A847B06030B1F06A401CF0620020641E67
:10100000F3D1F2BD4FF0FF30F2BD00007072696E97
:1010100074665F733A20256E20646973616C6C6F2F
:10102000776564007072696E74663A20626164204C
:10103000256E20617267756D656E7400000000009A
:101040006E616E004E414E00696E6600494E46006C
:101050003000F0B40246106895681318506803EB2E
:101060005004C00748BF4D44A3422DD013F8016B74
:1010700016F0030004BF13F8010BC01C31090F293F
:1010800007D113F8011B0F3103E013F8017B05F8BA
:10109000017B401EF9D10029E6D013F8010BC6F3FD
:1010A0008106032E08BF13F8016B00EB06204042B7
:1010B00028440026B71E8F421EBF10F8017B05F89A
:1010C000017B761CF6D1CFE7F0BC02F10C00704733
:1010D000C9B202788A421AB11CBF10F8012FF9E791
:1010E00018BF002070477047FEE7FEE7FEE7FEE707
:1010F000704770477047704780B500B906A0054932
:101100000B681BB122220021984701E000F064FE29
:10111000222002BD54010020636F6E7374726169F6
:101120006E742068616E646C65723A20626164203E
:101130006D6573736167650000F10103810704D079
:1011400010F8011B820781B1FAD10268A2F10131C6
:10115000914311F0803104BF50F8042FF6E709BA2B
:10116000B1FA81F100EBD100401CC01A704702684F
:10117000531C036011707047C9B2830706D0521E1A
:1011800022D310F8013B9942F7D11FE0083A13D35C
:1011900002F1040241EA012141EA014150F8043B15
:1011A000121F21BF4B40A3F1013C2CEA030C1CF0A1
:1011B000803FF3D0C9B2001F083210F8013B521E25
:1011C00028BF91EA030FF8D818BF0120401E7047CE
:1011D00062B38B0708D0521E11F8013B00F8013BA7
:1011E00000F024808B07F6D1830740F0208000BFF9
:1011F000103A07D330B4B1E83810103AA0E83810EC
:10120000F9D230BC530724BFB1E80810A0E8081099
:1012100044BF51F8043B40F8043BD20724BF31F8E7
:10122000022B20F8022B44BF0B7803707047121F6B
:1012300017D35B0009D151F8043B20F8023B1B0C8B
:10124000121F20F8023BF6D20BE051F8043B00F8E5
:10125000013B1B0A20F8023B1B0C121F00F8013B4C
:10126000F3D238BF121D521E24BF11F8013B00F803
:10127000013BF8D870472E0010B5144600F002F874
:10128000226010BDC1F30A5343B14A0012F5001F9A
:1012900028D2A3F2FE32A1EB0251704750EA410C72
:1012A00020D001F0004C31EA0C01B1FA81F204BF08
:1012B000B0FA80F3D2180B3AB2F120032CBF00FA37
:1012C00003F1914041EA0C013EBFC2F1200C20FA2B
:1012D0000CF319439040524240F2FD33D21A01EB15
:1012E000035170470022704741EA030C50EA4C0C4E
:1012F00052EA0C0C4FF4001C09D307D01CEB410F31
:101300009CBF1CEB430F8B4208BF824270471CEB13
:10131000430FFBD8994208BF9042704741EA030C43
:1013200050EA4C0C52EA0C0C4FF4001C09D307D0C5
:101330001CEB410F9CBF1CEB430F994208BF90422E
:1013400070471CEB410FFBD88B4208BF82427047AD
:10135000124254D440F2FF7C1CEA11530FD0634573
:1013600031D09B1863453CBF01EB0251704701F03F
:10137000004141EA0C510020AFF30080704750EA71
:10138000410320D001F0004C91EA0C011CD0B1FACD
:1013900081F30B3B9A420DD9D21A994051EA0C01C4
:1013A000C3F1200C20FA0CFC61449840531C40F21D
:1013B000FF7CD7E7914041EA0C01C2F1200C20FAF2
:1013C0000CF3194390407047B0FA80F31533202B8B
:1013D000E0D3202AEED3203A203B9A4209D9D21AF0
:1013E00000FA03F141EA0C010020531C40F2FF7C9B
:1013F000B8E700FA02F141EA0C01002070475242BE
:1014000040F2FF7C1CEA11530DD06345DBD0B2EBF8
:10141000030C3CBFA1EB025170470CF1010221EA21
:10142000035141F4801150EA410CCCD001F0004C42
:10143000352A27DC30B481EA0C01B2F1200309DA45
:10144000C2F12003044601FA03F5D0402843D140FD
:101450009C400CE0C3F12002450020FA03F418BFC1
:1014600044F0010421FA03F091400C43002174F18F
:10147000004550F1000051EB0C01244230BC7FF4D8
:101480007BAF70476146002076E74300C1F30A5303
:1014900040F21E42D31A0CDDCA0283F3070342EA6C
:1014A000505242F00042DA4002EBE17282EAE1700F
:1014B00070476FEAE17203F2E13008B182F0004058
:1014C0007047000010F0004160B148BF4042B0FAE0
:1014D00080F29040D21CC2F5846241EA025202EBD3
:1014E000D021400570470000841A71EB030604D236
:1014F0006E40001BB141121973414FF4001C1CEBEC
:10150000410F34BF7CEB430683E00C0DA4EB135674
:10151000362E00F37C80012E45EAC32341DC43EAEA
:10152000525312BFD20292025B08240545EAC12140
:1015300041EA5051D2EBC020994125D407D1B0FAED
:1015400080F610FA06F162D00020203608E0B1FAE9
:1015500081F6B140C6F1200220FA02F21143B040F8
:101560004FEAF474B4EB465434F001064FEA7404C5
:101570000AD8D6F50016760D04F00044F04061FA62
:1015800006F25040F1404840C00A40EA415021F084
:10159000004128BF5FEA500550F1000044EBD12123
:1015A00035E0DB0A45EAC121C90AB6F120050EDDA6
:1015B00042EA0242120CC5F1200603FA06F6EB409D
:1015C00042EA06056D42984161F100010DE062FAC0
:1015D00006F5F240554063FA06FC82EA0C02F3403D
:1015E0005A406D42904161EB030111F4801F05D117
:1015F000641E620502D06D004041494121F4801112
:10160000430875F1004350F1000041EB045170BCF8
:1016100070471CEB410F15D223F0004352EA4306FA
:101620000BD04FEA4C0CBCEB410F04D80C0D661EDE
:10163000342EB7DDEBE7801A994150EA410608BF26
:101640000021E4E708BF1CEB430F28BF6FF0000147
:10165000DDE7000070B491EA030F4FF000457FF51D
:1016600043AF6B40841A71EB030603D2001BB141F8
:10167000121973414FF4001C1CEB410F34BF7CEB7B
:10168000430442E00C0DA4EB1356352E4FDC45EA23
:10169000C323DB0A45EAC121C912B6F120050DDDDD
:1016A00063FA05F6EB4086EA0305124218BF45F0DF
:1016B0000105C01851F100010CD213E062FA06F5E1
:1016C000F2405540F3415A40B340F3405A4080182D
:1016D000594107D349085FEA30005FEA350528BF62
:1016E00045F0010501F58011420875F1004250F105
:1016F000000041EB04514E0016F5001F70BC38BFCE
:1017000070470020090D090570471CEB410F10D2EE
:1017100052EA43060BD0BCEB410F05D80C0DAB438E
:10172000661E342EB6DD02E0AB438018594170BC12
:10173000704770BC70470000F0B540F2FF7581EA59
:10174000030C0CF0004C15EA11541DBF15EA135799
:10175000AC42AF42E5E0BC41C1F31301C3F3130354
:10176000801A994143F4801304D2641E0018494141
:1017700080185941C90241EA5051B1FBF3F603FB0D
:101780001611A2FB0675D7EBC020A94102D2761E26
:1017900080185941C90241EA5051B1FBF3FE03FBE5
:1017A0001E11A2FB0E75D7EBC020A94103D2AEF1EA
:1017B000010E80185941890241EA9051760546EAA6
:1017C0008E2EB1FBF3F603FB1611A2FB0675D7EBC9
:1017D0008020A94102D2761E80185941C90241EAEF
:1017E00050514EEA060EB1FBF3F603FB1611A2FBB5
:1017F0000675D7EBC020A94102D2761E8018594148
:10180000C90241EA5051B1FBF3F703FB1711A2FBE8
:101810000735D3EBC020A94167F100070CBF004298
:1018200047F0010766F3D5274FEA1E31B80814F5D3
:10183000806412DDBD0775F1004250EB0E5051EB94
:10184000045111F5801F5CBF41EA0C01F0BD4CF062
:101850007F6141F0E0410020F0BDBD076D0840EA26
:101860000E5041F48011D4F10104B4F120060ADADB
:10187000C4F120060200E04001FA06F3E1401843FB
:10188000B24015430EE0342C13DCC6F1200445EAC7
:1018900040056D0820FA06F2154321FA06F0A14032
:1018A0000D43002175F1004250F1000051EB0C0195
:1018B000F0BD00205FEA0C01F0BDCFB992185B418A
:1018C000B3FA83F704BFB2FA82F6BF190B3FB7F140
:1018D00020062FBF02FA06F3BB40C7F1200622FA0A
:1018E00006F638BF3343BA401CB1E419641E33E72F
:1018F0007F4231F00041B1FA81F404BFB0FA80F6C2
:10190000A4190B3CB4F120062FBF00FA06F1A14048
:10191000C4F1200620FA06F638BF3143A0403C1B34
:101920001AE7AC421ABF05EA1357AF4212E050EA79
:1019300041061CBF52EA4306BFE750EA4107304662
:1019400061461CBF41EA0551F0BD52EA430C08BF95
:10195000C143F0BD00204FF4001616EB410F98BFB5
:1019600016EB430F08BF16EB410F24BFC14305E040
:1019700016EB430F0CBF61464CEA0551F0BD000069
:10198000400D40F21E4C40EAC120BCEB115C40F01F
:10199000004003D48CF30701C84070476FEAE17040
:1019A0007047000050B1B0FA80F18840C91CC1F501
:1019B0008461090501EBD02140057047014670475D
:1019C00030B540F2FF7C1CEA11541DBF1CEA1355D0
:1019D000644565453FE0641981EA030C6FF35F538A
:1019E0000CF0004C43F48013C90241F0004141EA7D
:1019F000505EC5021100A5FB020200284FF0000056
:101A0000EEFB01204FF00001E3FB052118BF42F07F
:101A10000102401800214941E3FB0E01A4F5806456
:101A20000D0302D292184041494154F1010470DD86
:101A3000450872F1004250F1000051EB0451A1F54C
:101A4000801102D441EA0C0130BD40F2FF7E4CEA25
:101A50000E51002030BD0CEA1355644518BF654592
:101A600081EA030C0CF0004C41D050EA410E1CBF3F
:101A700052EA430E02E06146002030BD24422C446D
:101A80001BD15FEA050EF6D0090302BF0146002014
:101A9000AEF1140EB1FA81F5AEEB050401FA05FEC4
:101AA0000C35C5F1200100FA05F5C8404EEA000EDC
:101AB0006FF35F5343F480139CE733F00043B3FAB2
:101AC00083F504BFB2FA82FE75440B3D641BB5F189
:101AD000200E2FBF02FA0EF3AB40C5F1200E22FA02
:101AE0000EFE38BF43EA0E03AA40641C7CE750EAAE
:101AF000410E14BF52EA430E6FF000014FF400157F
:101B000015EB430F8EBF194615EB410F9DE7B4D877
:101B100030BDD4F10104B4F120050FDAC4F1200581
:101B2000520828BF42F0010210FA05FE01FA05F53D
:101B30007244E2BFE0402843E1400FE0352C9ADCDC
:101B4000C5F1200452EA400220FA05F218BF42F023
:101B5000010231FA05F0A1400A43002172F100426E
:101B600050F1000051EB0C0130BD0000FFE741389F
:101B70001A288041C00F7047A0F10901052901D33F
:101B8000202801D10120704700207047A0F14101B9
:101B90001A2938BF20307047014870470148704704
:101BA000640000202C000020BBBBE1B1B2F5803FF7
:101BB00080F07E80022A1ED98C46B1FBF2F102FB36
:101BC00011C31B0443EA1043B3FBF2FC02FB1C33BA
:101BD00080B240EA0343B3FBF2F002FB103240EA6A
:101BE0000C4000237047022A05D98446B0FBF2F06E
:101BF00002FB10C270474AB105D100F0010249084A
:101C00005FEA3000704700220023704700F0E8B818
:101C10000B000200002100207047904271EB030C82
:101C2000F6D3B3F5803F2FD2F0B5B3FA83F7B1FA0C
:101C300081F4A7F10F0E3D1B5340CEF1200602FAAE
:101C40000EF2F3415340B5F10F0746D80F3C2C4438
:101C50004140C4F12006A040F1414140B1FBF3F600
:101C600003FB1611A2FB0645001BA94102D2761EFA
:101C70008018594180EA010221FA0EF362FA0EF24D
:101C800000215A403046F0BD30B4B1FBF3FC03FBF9
:101C90001C11A2FB0C45001BA94103D2ACF1010CA5
:101CA0008018594130BC02460B46604600217047FF
:101CB000B2F1807F65D3F0B5B2FA82F7B1FA81F460
:101CC000C7F10F063D1B22FA06F307F1110EF24190
:101CD00020355A40B5F10F07B8D94140C4F120066C
:101CE000A040F1414140B1FBF3FC03FB1C11A2FBFE
:101CF0000C45001BA94103D2BCF1010C80185941CD
:101D00000F2F12D30F3FC90341EA5041B1FBF3F645
:101D100003FB1611A2FB0645D4EBC030A94102D249
:101D2000761E8018594146EACC3C07B34140C7F1C2
:101D30002006B840F1414140B1FBF3F603FB161118
:101D4000A2FB0645001BA94102D2761E801859410C
:101D500080EA010221FA0EF3C7F1200462FA0EF2C2
:101D60000CFA07F05A402CFA04F13043F0BD80EA37
:101D7000010221FA0EF3002162FA0EF260465A4087
:101D8000F0BD8C46B1FBF2F102FB11C31B0243EA2A
:101D90001063B3FBF2FC02FB1C331B024CEA002075
:101DA00043EA1063B3FBF2FC02FB1C331B024CEA58
:101DB000002043EA1063B3FBF2FC02FB1C331B025E
:101DC0004CEA002043EA1063B3FBF2FC02FB1C3236
:101DD0004CEA002000237047012000F003B8000007
:101DE0007047000080B5AFF30080024A1100182050
:101DF000ABBEFBE7260002002DE9FC47322732206C
:101E00000020002400F0D6F900F062FA00F072FB26
:101E100000F024FC00F0C6FC00F026FD00F0A6FD5A
:101E2000C14A0021002000F047FEC04A01210020E5
:101E300000F042FE00F050FEBD4800F0C8FB6425F3
:101E4000BC4ED6F8008005FB08F81FE03168B120D1
:101E5000414304E030686428F8D144F22351B64885
:101E600001603768D6F8008005FB08F83168B34890
:101E700000F0B4FE6420B2490A6812EB0802096857
:101E8000B1FBF0F100FB1120AE490860DFF8B89219
:101E900099F80000002806D0AC49AD4800F09EFE3D
:101EA000002089F80000DFF8AC9299F800000028C3
:101EB00004D000F062F8002089F80000DFF8989262
:101EC000D9F80000002825D0D9F80010A34800F068
:101ED00085FED9F80000012802D100F0EDF816E0E7
:101EE000D9F80000022802D100F0F5F80FE0D9F887
:101EF0000000032802D100F0FDF808E0D9F8000046
:101F0000042804D1002C01D0002400E0012400208A
:101F1000C9F80000DFF84892D9F80000002807D07F
:101F2000002C05D08F4800F018FF0020C9F80000F1
:101F3000DFF83492D9F80000002815D06420009012
:101F4000002340F6FF7200218848008800F026F93F
:101F50008246BAEB070000F041FF052801DBC6F816
:101F600000A00020C9F800003068B84282D0306874
:101F700000287FF46FAF012171E738B5A0B00020D1
:101F8000002001A8142100F02DFF3221002213AC03
:101F9000200000F02BFF3221002206AC200000F0D0
:101FA00025FF734913A800F055FF002413A97148B9
:101FB00000F014FE58A5290013A800F057FF03E015
:101FC0002900002000F052FF002805D001A941F8A7
:101FD0002400641C052CF3DB01AD50A1686800F0FF
:101FE0006BFF00282CD1E868002804D0E86801F0D5
:101FF0000EF8040000E0002449A1A86800F05CFF8E
:10200000002814D1012010FA04F4210089B25A48A2
:1020100001F04FF8A86800906B68019A574906A82C
:1020200001F07EF806A800F086FB21B030BD01204B
:1020300010FA04F4210089B24F4801F03CF8E9E7B6
:102040004F49686800F038FF002826D14D49A8683C
:1020500000F032FF002802D100F03DF8DAE74A49EB
:10206000A86800F029FF002802D100F025F8D1E788
:102070004649A86800F020FF002802D100F03AF895
:10208000C8E728A1A86800F017FF0028C2D1E868B7
:1020900000F0BDFF00F03DF8BCE70A223C4968684B
:1020A00001F05EF80028C0D00D223A49686801F0BE
:1020B00057F80028B9D0B8E710B5374C01224FF4D3
:1020C0000071200000F0F9FF00224FF48061200031
:1020D00000F0F3FF10BD10B52F4C00224FF400713B
:1020E000200000F0EAFF01224FF48061200000F0A0
:1020F000E4FF10BD10B5284C00224FF40071200001
:1021000000F0DBFF00224FF48061200000F0D5FFDB
:1021100010BD0849086070475B405D004C454400B5
:102120004F4E000050574D00643B0008743B0008C0
:10213000843B00080000002034440140E43B0008D8
:102140001C0100202C0100205A010020AC000020BE
:10215000943B00085B01002018010020A43B00080C
:10216000300100200020014014010020580100200F
:10217000E0000020B43B000800080240FC3B0008DF
:10218000083C0008103C0008183C0008203C0008EF
:10219000F03B0008C43B00080004024010B4019C5E
:1021A000401AE41A6043511A90FBF1F01B18180012
:1021B00010BC704718B585B00121042001F044F827
:1021C00001214FF4804001F05BF800208DF80800F9
:1021D00000208DF80A0003208DF8090000208DF8FA
:1021E0000B004FF47044019401A9374800F016FF2A
:1021F000039400208DF8100008208DF811000120B4
:102200008DF8120003A801F059F80C21022001F00A
:10221000A9F80D21022001F0A5F80E21022001F0FD
:10222000A1F80F21022001F09DF84FF4A06001F009
:10223000C1F828208DF8000001208DF80100012050
:102240008DF8020001208DF80300684601F0B7F810
:1022500006B010BD80B54FF4805001F06BF8002837
:1022600007D00120194908604FF4805001F06CF844
:1022700028E04FF4005001F05DF8002807D002205C
:10228000124908604FF4005001F05EF81AE04FF474
:10229000804001F04FF8002807D003200B49086068
:1022A0004FF4804001F050F80CE04FF4004001F092
:1022B00041F8002806D00420044908604FF400408B
:1022C00001F042F801BD00000008024018010020A2
:1022D00010B586B00121042000F0B6FF01212020B6
:1022E00000F0C0FF01208DF8080000208DF80A00E2
:1022F00003208DF8090000208DF80B0040F6FF70D8
:10230000019001A96D4800F089FE4FF4A06001F032
:1023100051F837208DF8000001208DF801000120D0
:102320008DF8020001208DF80300684601F047F89F
:102330005320ADF80C0040F69F7004900020ADF8DB
:1023400014000020ADF80E005D4C03A9200001F040
:1023500071F80121200001F02FF901220121200054
:1023600001F00CF90121200001F0A7F806B010BD22
:1023700038B5534C0121200001F00CF9002826D07B
:102380000121200001F018F94E4C2068401C20600B
:102390004D480168491C01604C4D4D480168286852
:1023A00000F016F82868042802D10120286002E015
:1023B0002868401C28602068FA2808DB002020607C
:1023C00044480168491C016001204349086031BD4F
:1023D00010B5012812D14FF47A7091FBF0F200FB96
:1023E00012103E4A10603E484FF47A7291FBF2F1AF
:1023F00001600168012000F036F833E0022813D1B3
:10240000384936480268642392FBF3F20A6064227A
:102410000368046894FBF2F402FB1432026009685A
:10242000022000F020F81DE003280BD12E482B4994
:1024300009680A2291FBF2F101600168032000F0B3
:1024400012F80FE004280DD10A21284A2348036816
:10245000006890FBF1F001FB10311160116804205D
:1024600000F001F810BD70B506000D00134C2000FF
:1024700000F01CFE50F47060010089B2200000F0F2
:1024800023FE200000F012FE4FF48072711E8A407D
:1024900052F0FF029043010089B2200000F014FEC8
:1024A000200000F003FE10F470601149495D0843FC
:1024B000010089B2200000F007FE70BD0008024054
:1024C00000140040200100202401002028000020EA
:1024D0002C010020280100203001002044010020B0
:1024E00034010020380100203C0100204001002080
:1024F0001400002018B587B00121012000F0A4FECF
:1025000001215FF4003000F0ADFE02208DF80800DC
:1025100000208DF80A0003208DF8090001208DF8B5
:102520000B000C200190484C01A9200000F076FD22
:1025300007220221200000F0CAFD0722032120000B
:1025400000F0C5FD4FF4A06000F034FF26208DF8A8
:10255000000001208DF8010001208DF8020001200B
:102560008DF80300684600F02AFF5FF4E130039025
:102570000020ADF810000020ADF812000020ADF8EA
:1025800014000020ADF818000C20ADF816002F4CF8
:1025900003A9200001F072F8012240F22551200029
:1025A00001F0E6F80121200001F0CCF808B010BDE0
:1025B00010B50100254CC9B289B2200001F0D0F855
:1025C0008021200001F0FEF80028F9D010BD10B5E0
:1025D000040003E02078FFF7EBFF641C207800285C
:1025E000F8D110BD38B50400184D8021280001F045
:1025F000E9F80028F8D02000010089B2280001F095
:10260000AFF8200032BD10B5104C40F2255120002B
:1026100001F0E5F8002816D0200001F0A5F80C49DB
:102620000C4A0B68D0540868105C0D2808D10020B3
:102630000B68D0540120084A10700020086002E0A6
:102640000868401C086010BD0000024000440040C3
:1026500048010020AC0000205A01002018B587B0C6
:102660000121012000F0F0FD01215FF4002000F0C5
:10267000F9FD02208DF8080000208DF80A000320E3
:102680008DF8090001208DF80B0003200190404CCB
:1026900001A9200000F0C2FC08220021200000F067
:1026A00016FD08220121200000F011FD4FF4A0606A
:1026B00000F080FE34208DF8000001208DF801002C
:1026C00001208DF8020001208DF80300684600F01B
:1026D00076FE4FF4165003900020ADF81000002055
:1026E000ADF812000020ADF814000020ADF818007D
:1026F0000C20ADF81600274C03A9200000F0BEFF07
:10270000012240F22551200001F032F80121200081
:1027100001F018F808B010BD10B501001D4CC9B289
:1027200089B2200001F01CF88021200001F04AF855
:102730000028F9D010BD10B5040003E02078FFF7A1
:10274000EBFF641C20780028F8D110BD10B5114CA7
:1027500040F22551200001F042F8002816D0200058
:1027600001F002F80C490D4A0B68D0540868105C5F
:102770000A2808D100200B68D0540120084A1070A4
:102780000020086002E00868401C086010BD0000DE
:1027900000000240004C00404C010020E0000020FE
:1027A0005B01002010B58AB00121022000F04CFD31
:1027B00001215FF4003000F063FD4FF48070009061
:1027C00002208DF8040003208DF8050000208DF80C
:1027D000060001208DF80700214C6946200000F01A
:1027E0001DFC03220821200000F071FC4FF4C060A2
:1027F000009001208DF804006946200000F00EFCD6
:10280000A720ADF8080044F2235003900020ADF853
:1028100010000020ADF80A00124C02A9200000F0C0
:1028200009FE6020ADF814000120ADF8160042F258
:10283000912007900020ADF8200005A9200000F0AD
:102840004AFE0821200000F091FE0121200000F046
:1028500026FE0121200000F030FE0AB010BD00BFAE
:1028600000040240004401401FB50121022000F095
:10287000EBFC0121042000F0F5FC02208DF808009B
:1028800003208DF8090000208DF80A0000208DF843
:102890000B0080200190234C01A9200000F0BEFB1A
:1028A00002220721200000F012FC4FF4A06000F08B
:1028B00081FD1E208DF8000001208DF8010001200F
:1028C0008DF8020001208DF80300684600F077FDC6
:1028D000154C032300226021200000F071FE4021EE
:1028E000200000F069FE01224021200000F046FE99
:1028F0000121200000F0E1FD1FBD38B50B4C206820
:10290000401C2060084D4021280000F043FE0028B4
:1029100006D02068401C20604021280000F04CFEBA
:1029200031BD000000040240000800401C010020EE
:1029300081B00021009144F2A0114843009002E0D0
:102940000098401E009000980028F9D101B070470F
:1029500081B0002100910001009002E00098401E2B
:10296000009000980028F9D101B07047E0B501212E
:10297000072000F069FC01208DF8040000208DF88C
:10298000060003208DF8050000208DF807000720C1
:1029900000906946464800F041FB4FF4FF5000901C
:1029A0006946444800F03AFB00F021F807BD10B535
:1029B0003F4C0421200000F07CFB0520FFF7B8FF0E
:1029C0000421200000F077FB10BD10B5384C022127
:1029D000200000F070FB0121200000F06CFB4FF4A0
:1029E000E061344800F070FBFFF7E1FF10BD10B567
:1029F00004212F4800F05FFB0F20FFF799FFFFF73E
:102A0000E4FF0A20FFF794FFFFF7DFFF9620FFF7B0
:102A10009FFFFFF7DAFF274C4FF4F071200000F022
:102A200053FBFFF7C4FFC021200000F04DFBFFF770
:102A3000BEFF2021200000F047FBFFF7B8FF10BDCC
:102A400010B5040001211A4800F033FBE4B2640120
:102A5000210089B2174800F037FBFFF7A8FF10BD2F
:102A600070B504000D00124E0121300000F023FB70
:102A70000221300000F01FFB2800C0B2002808D15E
:102A8000E4B280346401210089B20A4800F01CFBE2
:102A90000AE0EDB2012D07D1E4B2C0346401210097
:102AA00089B2044800F010FBFFF781FF70BD000001
:102AB000000402400000024010B51400C9B2C0B2C8
:102AC000FFF7CEFF03E02078FFF7BAFF641C207801
:102AD0000028F8D110BD000018B58DB001210120EB
:102AE00000F0B2FB01214FF4807000F0C9FB03201D
:102AF0008DF8080000208DF80A0003208DF80900E9
:102B000000208DF80B001020019001A92F4800F043
:102B100085FA4FF4A06000F04DFC12208DF8000003
:102B200001208DF8010001208DF8020001208DF8B0
:102B30000300684600F043FC00200390002004904E
:102B4000002005900020069003A800F080F80020E7
:102B5000079000208DF8200000208DF82100002033
:102B6000099000200A9000200B9001208DF8300081
:102B7000174C07A9200000F045F80023012204218A
:102B8000200000F080F8012240F20521200000F032
:102B9000F5F80121200000F069F80EB010BD38B53D
:102BA0000B4C40F205252900200000F0F8F8002821
:102BB0000BD02900200000F00AF9200000F0D2F824
:102BC0000449088001200449086031BD000002402A
:102BD0000020014058010020140100200EB4C0B5AF
:102BE000024603A800210190009101AB0121044895
:102BF00078440C30FDF7CBFA06BC5DF810FB00BF43
:102C00004D0F000010B4002200234468574A1440BE
:102C10000A7954EA02240A68144344608468544AD6
:102C200014400A691443CA6814438A6814434A79F1
:102C300054EA42048460C26A32F47002097D491E7B
:102C40000B43DBB252EA0352C26210BC7047002150
:102C5000484B1A6848490A4001680A4341680A43D8
:102C600081680A43C06802431A607047C9B20029EC
:102C700004D0816851F00101816003E08168490856
:102C8000490081607047F0B4002400240C00E4B2D5
:102C90000A2C13DBC5680726B1F10A04032714FBCD
:102CA00007F416FA04F4A543DBB2B1F10A040326D3
:102CB00014FB06F4A3402B43C3600EE0056907260E
:102CC000032411FB04F416FA04F4A543DBB2032435
:102CD00011FB04F4A3402B4303611300DBB2072B69
:102CE00011DA436B1F25541E052614FB06F415FA52
:102CF00004F4A343C9B2521E052412FB04F291400E
:102D00001943416327E01300DBB20D2B11DA036B8B
:102D10001F25D41F052614FB06F415FA04F4A3435B
:102D2000C9B2D21F052412FB04F29140194301637A
:102D300011E0C36A1F25B2F10D04052614FB06F449
:102D400015FA04F4A343C9B20D3A052412FB04F2A8
:102D500091401943C162F0BC7047816851F08041D5
:102D600081607047C06C80B270470000FFFEFFFCBE
:102D7000FDF7FFC004230140E030FCFF0023C9B28F
:102D8000012313FA01F1D2B2002A03D042681143A1
:102D9000416003E0426832EA01014160704710B4CB
:102DA0000022002200220A0092B2120A92B2436864
:102DB000012414FA01F119400068104203D00029DF
:102DC00001D0012000E00020C0B210BC70470022FA
:102DD00089B2090AC9B2C94301607047002848BFD7
:102DE00040427047002200F02DBD000062F30F2228
:102DF00062F31F42401810F0030308D0C91A1FD312
:102E0000DB0748BF00F8012D28BF20F8022D130072
:102E100030B414461546103928BF20E93C00FAD8D2
:102E2000490728BF20E90C0048BF40F8042D89005D
:102E300028BF20F8022D48BF00F8012D30BC704794
:102E4000C91818BF00F8012DCB0728BF00F8012DC5
:102E5000704700005FEA000C11F8012B00F8012B0D
:102E600012B111F8012BF9E76046704738B504003C
:102E70000D460BD02946204600F0FDFC0444207886
:102E800048B90C4800210160002032BD09490C6896
:102E9000002CEFD132BD2946204600F0FDFC211860
:102EA000087810B1002201F8012B02480160204689
:102EB00032BD00BF5001002010F8012B11F8013B7A
:102EC0000AB19A42F8D0D01A704700002DE9F84FA5
:102ED00084B00E4617460BB100221A600446A04685
:102EE00001E008F1010898F8000000F0E6FC002875
:102EF000F7D198F800002D2816BF2B2818F8015B91
:102F00002B25002F019603D4012F01D0252F03DBA1
:102F1000002E55D0346053E0002F0CDD102F04BF7D
:102F200098F80000302802BF98F8010040F0200017
:102F3000782811D10CE098F80000302818BF0A2733
:102F40000AD198F8010040F02000782803D110271A
:102F500008F1020800E00827CDF80C8001E008F134
:102F6000010898F800003028F9D0064E7E44143647
:102F70004FF0000906F12800CDF80880CA468DF808
:102F800000000BE0840A00009DF80010401ACA46B9
:102F90005FFA80FB07FB09B908F1010898F8000007
:102FA00000F095FC01463A4606F12800FEF7E4F8E9
:102FB0000028E9D10399414504D1019800B104608A
:102FC000002020E00299F05DA8EB0101081A00281A
:102FD00010D406DCB9EB0B0103D3B1FBF7F050457D
:102FE00008D0AFF30080049808B1012101604FF0D0
:102FF000FF3903E02D2D08BFC9F10009019808B180
:10300000C0F80080484605B0BDE8F08F03E0FFE758
:103010000A220021FAE7002358E70000F0B400225A
:103020000022002200233DE0012414FA03F20D687F
:103030001540954235D1032502685E0015FA06F663
:10304000B243026006680F795A0097403E4306601B
:103050000A79012A02D00A79022A16D182685E0012
:1030600015FA06F6B243826086684F795A00974097
:103070003E43866042689C4032EA040444604268F1
:103080008C799C40A4B222434260C4685A009540A7
:1030900034EA0505C560C468CD795A0095402C43D3
:1030A000C4605B1C102BBFD3F0BC7047006980B2BA
:1030B00070470183704741837047D2B2002A01D024
:1030C000018300E04183704789B24161704770B469
:1030D00000230023D2B28B0013F01C039A400B0094
:1030E0009BB2DB1000EB83030C00A4B2E41000EBF6
:1030F0008404246A0F258E0016F01C06B540AC43EC
:103100001C620B009BB2DB1000EB83031B6A1A43AB
:1031100089B2C91000EB8100026270BC70470000E8
:103120000CB430B583B00A4606A9029104460025C6
:103130000194009502AB01A9084878441E30FDF7C0
:1031400026F8019A157000284EBF04460198041B0A
:10315000204603B030BC5DF80CFB00BF13E0FFFF5E
:103160008AB10B7890F800C09C4506D110F8013B5D
:103170004BB1491C521EF4D105E002D24FF0FF3092
:1031800070470120704700207047000010B40021F4
:1031900000210021022100210221DFF80021116815
:1031A00011F00C01002904D0042906D0082908D008
:1031B0002BE0DFF8F01001602AE0DFF8EC1001608E
:1031C00026E0DFF8DC402168C1F38051236813F06A
:1031D0003F03002908D0DFF8D010B1FBF3F32168DA
:1031E000C1F388114B4307E0DFF8B810B1FBF3F3EC
:1031F0002168C1F388114B432168C1F30141491C87
:103200004900B3FBF1F1016002E0DFF898100160C2
:10321000116811F0F0010909DFF89030595C046879
:10322000CC404460116811F4E051890A595C44684B
:10323000CC408460116811F46041490B595C4268CC
:10324000CA40C26010BC7047C9B2002904D01849F6
:103250000A681043086004E015490A6832EA000071
:1032600008607047C9B2002904D012490A681043A7
:10327000086004E00F490A6832EA000008607047FD
:10328000C9B2002904D00C490A681043086004E060
:1032900009490A6832EA00000860704708380240AD
:1032A000043802400024F40000127A0004000020D8
:1032B00030380240403802404438024030B40021E7
:1032C000234A1300817900292CD0214C25680168FC
:1032D0008D4325601F4C256801688D432560017969
:1032E0005B181C6801680C431C601B4B1C68016860
:1032F0008C431C60194C256801688D432560417919
:10330000102908D11A6801680A431A602168006808
:10331000014321600CE0417951180A6800680243BA
:103320000A6005E0017959180A68006882430A605A
:1033300030BC704700210A490968014201D00120D0
:1033400000E00020C0B270470549086070470000E7
:10335000003C0140043C0140083C01400C3C014061
:10336000143C014010B400220F238A0012F00C021A
:1033700013FA02F20E4B0C00E4B234F003041C59B1
:1033800034EA02020C00E4B234F003041A510A00D9
:10339000D2B232F003029A58C0B28C0014F00C047E
:1033A000A0401043C9B231F00301585010BC70471F
:1033B000083801401A4908431A490860704700213B
:1033C00000210F23C17800291FD01649096811F484
:1033D000E061D1F5E061090AD1F10402DBB20B41F1
:1033E000417811FA02F281780B401A4312010E491A
:1033F0000378CA540121027812F01F0291400B4A4F
:103400000078401142F8201009E00121027812F002
:103410001F029140064A0078401142F82010704780
:103420000000FA050CED00E000E400E000E100E03F
:1034300080E100E010B400220488454B98420ED091
:10344000494A90420BD0B0F1804F08D0414A904297
:1034500005D0414A904202D0404A904204D14FF6F2
:103460008F7214404A8814433D4A904207D03D4A27
:10347000904204D04FF6FF4214400A89144304805E
:103480004A68C2620A880285984202D0364A90424F
:1034900001D1897A01860121818210BC7047C9B2AD
:1034A000002904D0018851F08001018004E00288E5
:1034B0004FF67F710A4002807047C9B2002904D0DC
:1034C000018851F00101018004E002884FF6FE718D
:1034D0000A400280704730B4002200220022038C90
:1034E0004FF6FE7213400384058C8388048B4FF6DD
:1034F0008F7214404FF6FC7214400A8814434FF642
:10350000FD7215408A8915434A881543104A904236
:1035100002D0154A904213D14FF6F7721540CA896E
:1035200015434FF6FB7215408A8815434FF6FF622C
:1035300013404FF6FF5213400A8A13434A8A13433B
:103540008380048389684163058430BC7047000030
:10355000000001400004004000080040000C004052
:103560000010004000140040000401400022038BC2
:103570004FF6F7721340194301837047D2B2002A05
:1035800003D082891143818103E0828932EA0101FB
:1035900081817047002200220022028A0A4080892D
:1035A000014092B2002A04D089B2002901D0012042
:1035B00000E00020C0B2704789B2C9430182704761
:1035C00038B504000D001100280080B2602806D133
:1035D0009BB2012289B2200000F033F805E09BB2D3
:1035E000012289B2200000F012F8290089B22000DF
:1035F00000F005F8208950F00700208131BD00223D
:1036000003894FF68F72134019430181704770B4DC
:1036100000240024058C4FF6FE7425400584058B9C
:10362000068C4FF60C7425402A4352EA03124FF6DB
:10363000F5731E40314351F001010283018470BCD7
:10364000704770B4002400240024058C4FF6EF74FA
:1036500025400584058B068C090140F6FF44254072
:1036600055EA033555EA02254FF65F72164031439D
:1036700051F010010583018470BC704738B584B0E7
:1036800005000C000020002000200020A089002858
:10369000298A31F44051E08801432982A9892848C8
:1036A0000140A08801432089014360890143A98129
:1036B000A98A31F44071A0890143A9826846FFF7C5
:1036C00065FD1D48854202D01C48854201D1039901
:1036D00000E00299A889000406D51920414320681A
:1036E0004000B1FBF0F205E0192041432068800062
:1036F000B1FBF0F26420B2FBF0F109010B001B09F1
:103700007FF0630000FB0322A889000408D5D200E3
:1037100032326420B2FBF0F010F00700014307E002
:10372000120132326420B2FBF0F010F00F000143BE
:10373000298105B030BD0000001001400014014097
:10374000F3E9FFFFC9B2002904D0818951F4005187
:10375000818104E082894DF6FF710A4082817047C1
:10376000C905C90D818070478088C005C00D7047AC
:1037700010B400230023002300230B0040F66A143A
:103780009BB2A3420B00DBB25B09DBB289B211F042
:103790001F01012414FA01F1012B01D10C3004E0C6
:1037A000022B01D1103000E01430D2B2002A03D035
:1037B00002681143016003E0026832EA010101601E
:1037C00010BC704700220A0092B2B2F5007F008858
:1037D000084201D0012000E00020C0B2704710B4C0
:1037E00000220022002200220A0040F66A1392B250
:1037F0009A420B00DBB25B09DBB20A0092B212F014
:103800001F02012414FA02F2012B02D183891A400B
:1038100006E0022B02D1038A1A4001E0838A1A4093
:1038200089B2090A89B214FA01F100880140002A1C
:1038300003D0002901D0012000E00020C0B210BC5C
:103840007047000000B500BF13009646944610393B
:1038500028BFA0E80C50FAD85FEA417C28BF0CC012
:1038600048BF40F8042BC90728BF20F8022B48BFE7
:1038700000F8012B00BD70B4044600E0641C2378FE
:103880003BB10D462A7822B115F8016BB342F9D14C
:10389000F4E7201A70BC704770B4044600E0641C62
:1038A00023783BB10D462A78002AF8D015F8016B31
:1038B000B342F8D1201A70BC704710B50446FEF729
:1038C0006BF901462046096ABDE81040084710B56B
:1038D0000446FEF761F901462046896ABDE81040BA
:1038E0000847000080B53C48016851F47001016050
:1038F0003A49086850F0010008600020384A10601A
:103900000A68384802400A603748384A1060086838
:1039100030F48020086000203549086000F005F888
:103920005FF000603349086001BD82B00020019063
:10393000002000902949086850F480300860086829
:1039400010F4003000900198401C0190009800286D
:1039500003D10198B0F5A04FF1D10868800302D5DA
:103960000120009001E000200090009801282FD154
:103970002148026852F0805202602048026852F4E6
:1039800040420260164802680260026852F4004237
:103990000260026852F4A0520260194A134B1A6086
:1039A0000A6852F080720A600A689201FCD540F2FF
:1039B0000571144A11600168890889000160016875
:1039C00051F002010160016811F00C010829FAD1DF
:1039D00002B070470000000088ED00E000380240AF
:1039E00008380240FFFFF6FE103000240438024081
:1039F0000C38024008ED00E0403802400070004002
:103A000008544007003C024000002115110E0D0C27
:103A10000B0B0A0A09090909090808080808080817
:103A2000070707070707070707070707070000003B
:103A30003031323334353637383961626364656624
:103A40006768696A6B6C6D6E6F707172737475768E
:103A50007778797A0000000030B4002512E050F841
:103A6000042BD30744BF4A44521E091F042942F8BD
:103A7000045BFAD213468C0744BF15809B1CC90710
:103A800048BF1D7050F8041B0029E8D130BC7047B6
:103A900010B5074979441831064C7C44163404E0CB
:103AA0000A68081D114488470146A142F8D110BD9B
:103AB0002C000000480000004EF68851CEF20001B4
:103AC000086840F470000860BFF34F8FBFF36F8F3A
:103AD0004FF00170E1EE100A704700007DFFFFFF1C
:103AE000B0000000AC0000200000000067D5FFFF20
:103AF00068020000AE0000000000002000F00DF899
:103B0000002801D0FFF7C4FFAFF300800020AFF31F
:103B10000080FEF771F900F002F80120704700F014
:103B200001B8000007463846FEF75CF9FBE70000E5
:103B30000548014603B4684680F30988AFF3008066
:103B4000FFF7BAFFFFF7DAFFA5EDF5FE38B504463B
:103B50000D462846FEF746FDA84218BF0024204621
:103B600032BD000041496F5420456D626564646553
:103B700064000000426C7565746F6F746820546552
:103B8000737400007374617274206D61696E28290A
:103B90000D0A000072783244617461203A20257366
:103BA0000D0A00004B6579203A20256420200D0A7B
:103BB0000000000072783444617461203A2025735B
:103BC0000D0A000020416C7265616479206C6F679A
:103BD000000000000148804701480047E538000820
:103BE000313B000850574D203A2025640D0A000053
:103BF000204E657720636F6E6E0000005B25735D5D
:103C000025734025730A00004D4F544F52000000A9
:103C10004C454654000000005249474854000000FB
:103C200053544F5000000000FFF7FEBFFFF7FEBFE8
:103C3000FFF7FEBFFFF7FEBFFFF7FEBFFFF7FEBFB8
:103C4000FFF7FEBFFFF7FEBFFFF7FEBFFFF7FEBFA8
:103C5000FFF7FEBFFFF7FEBFFFF7FEBFFFF7FEBF98
:103C6000FFF7FEBFFFF7FEBFFFF7FEBFFFF7FEBF88
:103C7000FFF7FEBFFFF7FEBFFFF7FEBFFFF7FEBF78
:103C8000FFF7FEBFFFF7FEBFFFF7FEBFFFF7FEBF68
:103C9000FFF7FEBFFFF7FEBFFFF7FEBFFFF7FEBF58
:103CA000FFF7FEBFFFF7FEBFFFF7FEBFFFF7FEBF48
:103CB000FFF7FEBFFFF7FEBFFFF7FEBFFFF7FEBF38
:103CC000FFF7FEBFFFF7FEBFFFF7FEBFFFF7FEBF28
:103CD000FFF7FEBFFFF7FEBFFFF7FEBFFFF7FEBF18
:103CE000FFF7FEBFFFF7FEBFFFF7FEBFFFF7FEBF08
:103CF000FFF7FEBFFFF7FEBFFFF7FEBFFFF7FEBFF8
:103D0000FFF7FEBFFFF7FEBFFFF7FEBFFFF7FEBFE7
:103D1000FFF7FEBFFFF7FEBFFFF7FEBFFFF7FEBFD7
:103D2000FFF7FEBFFFF7FEBFFFF7FEBFFFF7FEBFC7
:103D3000FFF7FEBFFFF7FEBFFFF7FEBFFFF7FEBFB7
:103D4000FFF7FEBFFFF7FEBFFFF7FEBFFFF7FEBFA7
:103D5000FFF7FEBFFFF7FEBF433200012002010262
:103D60000304041014060708093F065B4F666D7CC8
:103D7000077F67777C395E79710880201128F0020F
:103D800007C21400080452FF01E376121410010068
:103D9000008A0C2140F003022C00002000011003D7
:0F3DA000791B00086D04128D04F10320520115E8
:0400000508003B3183
:00000001FF
